{
  "_format": "hh-sol-artifact-1",
  "contractName": "AIONStaking",
  "sourceName": "contracts/AIONStaking.sol",
  "abi": [
    {
      "inputs": [
        {
          "internalType": "address",
          "name": "_aionToken",
          "type": "address"
        }
      ],
      "stateMutability": "nonpayable",
      "type": "constructor"
    },
    {
      "anonymous": false,
      "inputs": [
        {
          "indexed": false,
          "internalType": "uint256",
          "name": "amount",
          "type": "uint256"
        }
      ],
      "name": "RevenueDeposited",
      "type": "event"
    },
    {
      "anonymous": false,
      "inputs": [
        {
          "indexed": true,
          "internalType": "address",
          "name": "user",
          "type": "address"
        },
        {
          "indexed": false,
          "internalType": "uint256",
          "name": "amount",
          "type": "uint256"
        },
        {
          "indexed": false,
          "internalType": "uint256",
          "name": "shares",
          "type": "uint256"
        }
      ],
      "name": "Staked",
      "type": "event"
    },
    {
      "anonymous": false,
      "inputs": [
        {
          "indexed": true,
          "internalType": "address",
          "name": "user",
          "type": "address"
        },
        {
          "indexed": false,
          "internalType": "uint256",
          "name": "stakeIndex",
          "type": "uint256"
        },
        {
          "indexed": false,
          "internalType": "uint256",
          "name": "amount",
          "type": "uint256"
        },
        {
          "indexed": false,
          "internalType": "uint256",
          "name": "reward",
          "type": "uint256"
        }
      ],
      "name": "Unstaked",
      "type": "event"
    },
    {
      "inputs": [],
      "name": "LOCK_PERIOD",
      "outputs": [
        {
          "internalType": "uint256",
          "name": "",
          "type": "uint256"
        }
      ],
      "stateMutability": "view",
      "type": "function"
    },
    {
      "inputs": [],
      "name": "MIN_STAKE",
      "outputs": [
        {
          "internalType": "uint256",
          "name": "",
          "type": "uint256"
        }
      ],
      "stateMutability": "view",
      "type": "function"
    },
    {
      "inputs": [],
      "name": "aionToken",
      "outputs": [
        {
          "internalType": "contract IERC20",
          "name": "",
          "type": "address"
        }
      ],
      "stateMutability": "view",
      "type": "function"
    },
    {
      "inputs": [
        {
          "internalType": "address",
          "name": "user",
          "type": "address"
        },
        {
          "internalType": "uint256",
          "name": "stakeIndex",
          "type": "uint256"
        }
      ],
      "name": "calculateUserValue",
      "outputs": [
        {
          "internalType": "uint256",
          "name": "",
          "type": "uint256"
        }
      ],
      "stateMutability": "view",
      "type": "function"
    },
    {
      "inputs": [
        {
          "internalType": "uint256",
          "name": "amount",
          "type": "uint256"
        }
      ],
      "name": "depositRevenue",
      "outputs": [],
      "stateMutability": "nonpayable",
      "type": "function"
    },
    {
      "inputs": [],
      "name": "getCurrentAPY",
      "outputs": [
        {
          "internalType": "uint256",
          "name": "",
          "type": "uint256"
        }
      ],
      "stateMutability": "view",
      "type": "function"
    },
    {
      "inputs": [
        {
          "internalType": "address",
          "name": "user",
          "type": "address"
        }
      ],
      "name": "getUserStakes",
      "outputs": [
        {
          "components": [
            {
              "internalType": "uint256",
              "name": "amount",
              "type": "uint256"
            },
            {
              "internalType": "uint256",
              "name": "startTime",
              "type": "uint256"
            },
            {
              "internalType": "uint256",
              "name": "shares",
              "type": "uint256"
            },
            {
              "internalType": "bool",
              "name": "active",
              "type": "bool"
            }
          ],
          "internalType": "struct AIONStaking.StakeInfo[]",
          "name": "",
          "type": "tuple[]"
        }
      ],
      "stateMutability": "view",
      "type": "function"
    },
    {
      "inputs": [],
      "name": "lastDistributionTime",
      "outputs": [
        {
          "internalType": "uint256",
          "name": "",
          "type": "uint256"
        }
      ],
      "stateMutability": "view",
      "type": "function"
    },
    {
      "inputs": [],
      "name": "owner",
      "outputs": [
        {
          "internalType": "address",
          "name": "",
          "type": "address"
        }
      ],
      "stateMutability": "view",
      "type": "function"
    },
    {
      "inputs": [],
      "name": "predictionMarket",
      "outputs": [
        {
          "internalType": "address",
          "name": "",
          "type": "address"
        }
      ],
      "stateMutability": "view",
      "type": "function"
    },
    {
      "inputs": [],
      "name": "revenuePool",
      "outputs": [
        {
          "internalType": "uint256",
          "name": "",
          "type": "uint256"
        }
      ],
      "stateMutability": "view",
      "type": "function"
    },
    {
      "inputs": [
        {
          "internalType": "address",
          "name": "_market",
          "type": "address"
        }
      ],
      "name": "setPredictionMarket",
      "outputs": [],
      "stateMutability": "nonpayable",
      "type": "function"
    },
    {
      "inputs": [
        {
          "internalType": "uint256",
          "name": "amount",
          "type": "uint256"
        }
      ],
      "name": "stake",
      "outputs": [],
      "stateMutability": "nonpayable",
      "type": "function"
    },
    {
      "inputs": [],
      "name": "totalShares",
      "outputs": [
        {
          "internalType": "uint256",
          "name": "",
          "type": "uint256"
        }
      ],
      "stateMutability": "view",
      "type": "function"
    },
    {
      "inputs": [],
      "name": "totalStaked",
      "outputs": [
        {
          "internalType": "uint256",
          "name": "",
          "type": "uint256"
        }
      ],
      "stateMutability": "view",
      "type": "function"
    },
    {
      "inputs": [
        {
          "internalType": "uint256",
          "name": "stakeIndex",
          "type": "uint256"
        }
      ],
      "name": "unstake",
      "outputs": [],
      "stateMutability": "nonpayable",
      "type": "function"
    },
    {
      "inputs": [
        {
          "internalType": "address",
          "name": "",
          "type": "address"
        },
        {
          "internalType": "uint256",
          "name": "",
          "type": "uint256"
        }
      ],
      "name": "userStakes",
      "outputs": [
        {
          "internalType": "uint256",
          "name": "amount",
          "type": "uint256"
        },
        {
          "internalType": "uint256",
          "name": "startTime",
          "type": "uint256"
        },
        {
          "internalType": "uint256",
          "name": "shares",
          "type": "uint256"
        },
        {
          "internalType": "bool",
          "name": "active",
          "type": "bool"
        }
      ],
      "stateMutability": "view",
      "type": "function"
    }
  ],
  "bytecode": "0x60803461008057601f610cee38819003918201601f19168301916001600160401b038311848410176100855780849260209460405283398101031261008057516001600160a01b038116908190036100805760018060a01b0319908160005416176000553390600154161760015542600755604051610c52908161009c8239f35b600080fd5b634e487b7160e01b600052604160045260246000fdfe608060408181526004918236101561001657600080fd5b600092833560e01c91826303b88ba214610942575081631820cabb1461092457816324864369146108fc5781632e17de78146106cb5781633a98ef39146106ac578163599040ad1461068357816375b17350146106645781637f753de614610645578163817b1cd214610627578163842e2981146105285781638da5cb5b146104ff578163962ca496146104db578163a694fc3a146102e9578163b5d5b5fa1461026f578163bc1ca3e91461012e57508063cb1c2b5c1461010b5763def114b6146100e057600080fd5b3461010757816003193601126101075760025490516001600160a01b039091168152602090f35b5080fd5b50346101075781600319360112610107576020905168056bc75e2d631000008152f35b90503461026b576020908160031936011261026757600254813591906001600160a01b039081163314801561025a575b1561022657855485516323b872dd60e01b815233938101938452306020850152604084018590529285928492169082908990829060600103925af190811561021c577fa233bf660ff45a53efdacc9f262f3ba6a03b00e58e587d8536a4cfec59680a1c94916101d49187916101ef575b50610a7b565b6101e082600654610b02565b6006554260075551908152a180f35b61020f9150853d8711610215575b6102078183610a41565b810190610a63565b386101ce565b503d6101fd565b84513d87823e3d90fd5b845162461bcd60e51b8152808301859052600e60248201526d139bdd08185d5d1a1bdc9a5e995960921b6044820152606490fd5b508060015416331461015e565b8380fd5b8280fd5b5050346101075780600319360112610107576102896109c2565b6001600160a01b031682526003602052808220805460243593908410156102e657506080926102b7916109dd565b509081549160018101549160ff6003600284015493015416928151948552602085015283015215156060820152f35b80fd5b838334610107576020908160031936011261026b5783359168056bc75e2d6310000083106104a957835482516323b872dd60e01b815233878201908152306020820152604081018690529091839183916001600160a01b03169082908990829060600103925af190811561049f57906103689186916104825750610a7b565b60055480610467575082905b33855260038152828520835161038981610a0f565b858152828101428152858201908582526060830193600185528054906801000000000000000082101561045457906103c6916001820181556109dd565b93909361044257917f1449c6dd7851abc30abf37f57715f492010519147cc2652fbc38202c18a6ee9098999a949391600393518355516001830155516002820155019051151560ff80198354169116179055610423868254610b02565b905561043182600554610b02565b60055582519485528401523392a280f35b634e487b7160e01b8a52898b5260248afd5b634e487b7160e01b8b5260418c5260248bfd5b61047461047c9185610ab9565b865490610ae2565b90610374565b6104999150833d8511610215576102078183610a41565b876101ce565b83513d87823e3d90fd5b8490606492519162461bcd60e51b8352820152600d60248201526c42656c6f77206d696e696d756d60981b6044820152fd5b5050346101075781600319360112610107576020906104f8610bc0565b9051908152f35b50503461010757816003193601126101075760015490516001600160a01b039091168152602090f35b83915034610107576020908160031936011261026b576001600160a01b0361054e6109c2565b1683526003825283832091825467ffffffffffffffff811161061457855191949261057f600583901b870184610a41565b8183528583018095855286852085915b8483106105f0575050505050845193808501918186525180925285850193925b8281106105bc5785850386f35b83518051865280830151868401528781015188870152606090810151151590860152608090940193928101926001016105af565b8389600192610602859c999a9c610b1c565b8152019201920191909795949761058f565b634e487b7160e01b855260418352602485fd5b90503461026b578260031936011261026b5760209250549051908152f35b5050346101075781600319360112610107576020906006549051908152f35b5050346101075781600319360112610107576020906007549051908152f35b5050346101075780600319360112610107576020906104f86106a36109c2565b60243590610b53565b5050346101075781600319360112610107576020906005549051908152f35b90503461026b57602091826003193601126102675781359233855260038152818520548410156108cb5733855260038152610708848387206109dd565b50600381019384549460ff86161561089b57600183015462093a8081018091116108885742106108565761077e90610744835460065490610b02565b9061076061075760028701938454610ab9565b60055490610ae2565b9760ff1916905561077384548454610b0f565b835554600554610b0f565b60055582825480871160001461084e576107989087610b0f565b955b8661083a575b604460018060a01b038a5416938a8851958694859363a9059cbb60e01b8552339085015260248401525af190811561083057906107e39188916108195750610a7b565b549082519485528401528201527f204fccf0d92ed8d48f204adb39b2e81e92bad0dedb93f5716ca9478cfb57de0060603392a280f35b61020f9150843d8611610215576102078183610a41565b84513d89823e3d90fd5b61084687600654610b0f565b6006556107a0565b50879561079a565b845162461bcd60e51b8152808301859052600c60248201526b14dd1a5b1b081b1bd8dad95960a21b6044820152606490fd5b634e487b7160e01b895260118352602489fd5b845162461bcd60e51b8152808301859052600a6024820152694e6f742061637469766560b01b6044820152606490fd5b905162461bcd60e51b815291820152600d60248201526c092dcecc2d8d2c840d2dcc8caf609b1b6044820152606490fd5b505034610107578160031936011261010757905490516001600160a01b039091168152602090f35b5050346101075781600319360112610107576020905162093a808152f35b8492503461026b57602036600319011261026b5761095e6109c2565b6001546001600160a01b03939192919084163303610994575050166bffffffffffffffffffffffff60a01b600254161760025580f35b62461bcd60e51b8252602090820152600a60248201526927b7363c9037bbb732b960b11b6044820152606490fd5b600435906001600160a01b03821682036109d857565b600080fd5b80548210156109f95760005260206000209060021b0190600090565b634e487b7160e01b600052603260045260246000fd5b6080810190811067ffffffffffffffff821117610a2b57604052565b634e487b7160e01b600052604160045260246000fd5b90601f8019910116810190811067ffffffffffffffff821117610a2b57604052565b908160209103126109d8575180151581036109d85790565b15610a8257565b60405162461bcd60e51b815260206004820152600f60248201526e151c985b9cd9995c8819985a5b1959608a1b6044820152606490fd5b81810292918115918404141715610acc57565b634e487b7160e01b600052601160045260246000fd5b8115610aec570490565b634e487b7160e01b600052601260045260246000fd5b91908201809211610acc57565b91908203918211610acc57565b90604051610b2981610a0f565b606060ff600383958054855260018101546020860152600281015460408601520154161515910152565b6001600160a01b031660009081526003602052604090208054821015610bb957610b8691610b80916109dd565b50610b1c565b606081015115610bb357610757610bb0916040610ba860045460065490610b02565b910151610ab9565b90565b50600090565b5050600090565b6004548015610bb357610bd560075442610b0f565b8015610bb957600654906301e1338091828102928184041490151715610acc57610bfe91610ae2565b9061271091828102928184041490151715610acc57610bb091610ae256fea2646970667358221220c4eee2512890192957bb27b94e311ad9d744794d5c30eb0f3a8e980daf1d7b9f64736f6c63430008130033",
  "linkReferences": {},
  "deployedLinkReferences": {}
}