{
  "_format": "hh-sol-artifact-1",
  "contractName": "AIONFaucet",
  "sourceName": "contracts/AIONFaucet.sol",
  "abi": [
    {
      "inputs": [
        {
          "internalType": "address",
          "name": "_aionToken",
          "type": "address"
        }
      ],
      "stateMutability": "nonpayable",
      "type": "constructor"
    },
    {
      "anonymous": false,
      "inputs": [
        {
          "indexed": true,
          "internalType": "address",
          "name": "user",
          "type": "address"
        },
        {
          "indexed": false,
          "internalType": "uint256",
          "name": "amount",
          "type": "uint256"
        }
      ],
      "name": "Claimed",
      "type": "event"
    },
    {
      "inputs": [],
      "name": "aionToken",
      "outputs": [
        {
          "internalType": "contract IERC20",
          "name": "",
          "type": "address"
        }
      ],
      "stateMutability": "view",
      "type": "function"
    },
    {
      "inputs": [],
      "name": "claim",
      "outputs": [],
      "stateMutability": "nonpayable",
      "type": "function"
    },
    {
      "inputs": [],
      "name": "claimAmount",
      "outputs": [
        {
          "internalType": "uint256",
          "name": "",
          "type": "uint256"
        }
      ],
      "stateMutability": "view",
      "type": "function"
    },
    {
      "inputs": [],
      "name": "cooldownTime",
      "outputs": [
        {
          "internalType": "uint256",
          "name": "",
          "type": "uint256"
        }
      ],
      "stateMutability": "view",
      "type": "function"
    },
    {
      "inputs": [
        {
          "internalType": "address",
          "name": "",
          "type": "address"
        }
      ],
      "name": "lastClaimTime",
      "outputs": [
        {
          "internalType": "uint256",
          "name": "",
          "type": "uint256"
        }
      ],
      "stateMutability": "view",
      "type": "function"
    },
    {
      "inputs": [],
      "name": "owner",
      "outputs": [
        {
          "internalType": "address",
          "name": "",
          "type": "address"
        }
      ],
      "stateMutability": "view",
      "type": "function"
    },
    {
      "inputs": [
        {
          "internalType": "uint256",
          "name": "_amount",
          "type": "uint256"
        }
      ],
      "name": "setClaimAmount",
      "outputs": [],
      "stateMutability": "nonpayable",
      "type": "function"
    },
    {
      "inputs": [
        {
          "internalType": "uint256",
          "name": "_seconds",
          "type": "uint256"
        }
      ],
      "name": "setCooldown",
      "outputs": [],
      "stateMutability": "nonpayable",
      "type": "function"
    },
    {
      "inputs": [
        {
          "internalType": "uint256",
          "name": "amount",
          "type": "uint256"
        }
      ],
      "name": "withdraw",
      "outputs": [],
      "stateMutability": "nonpayable",
      "type": "function"
    }
  ],
  "bytecode": "0x60803461009057601f6105f438819003918201601f19168301916001600160401b038311848410176100955780849260209460405283398101031261009057516001600160a01b038116908190036100905768056bc75e2d631000006002556201518060035560018060a01b0319908160005416176000553390600154161760015560405161054890816100ac8239f35b600080fd5b634e487b7160e01b600052604160045260246000fdfe6080604081815260048036101561001557600080fd5b600092833560e01c9081632486436914610422575080632e1a7d4d146103715780634e71d92d1461018f5780634fc3f41a14610160578063830953ab146101415780638da5cb5b14610118578063b1c7ef0c146100e9578063b319c6b7146100c65763b77cf9c61461008657600080fd5b346100c25760203660031901126100c25780356001600160a01b038116908190036100be579282916020948252845220549051908152f35b8380fd5b8280fd5b5050346100e557816003193601126100e5576020906003549051908152f35b5080fd5b8382346100e55760203660031901126100e55761011160018060a01b036001541633146104d9565b3560025580f35b5050346100e557816003193601126100e55760015490516001600160a01b039091168152602090f35b5050346100e557816003193601126100e5576020906002549051908152f35b8382346100e55760203660031901126100e55761018860018060a01b036001541633146104d9565b3560035580f35b50346100c257826003193601126100c25733835260209080825282842054600354810180911161035e57421061032b57835483516370a0823160e01b815230838201526001600160a01b039184908290602490829086165afa9081156103215786916102f0575b50600254116102bf57338086528284528486204290558554600254865163a9059cbb60e01b81529485019283526020830152929392839285928390036040019183918991165af19182156102b2577fd8138f8a3f377c5259ca548e70e4c2de94f129f5a11036a15b69513cba2b426a92610277918691610285575b5061049b565b60025492519283523392a280f35b6102a59150833d85116102ab575b61029d8183610446565b81019061047e565b38610271565b503d610293565b50505051903d90823e3d90fd5b50915162461bcd60e51b815291820152600c60248201526b46617563657420656d70747960a01b6044820152606490fd5b90508381813d831161031a575b6103078183610446565b810103126103165751386101f6565b8580fd5b503d6102fd565b85513d88823e3d90fd5b915162461bcd60e51b815291820152600f60248201526e436f6f6c646f776e2061637469766560881b6044820152606490fd5b634e487b7160e01b855260118252602485fd5b50346100c25760203660031901126100c2576001546103df916020916001600160a01b03908116906103a43383146104d9565b8654865163a9059cbb60e01b81526001600160a01b039093168484019081529335602085015291948593919092169183918891839160400190565b03925af1908115610416576103fb925083916103fe575061049b565b80f35b6102a5915060203d81116102ab5761029d8183610446565b505051903d90823e3d90fd5b8490346100e557816003193601126100e55790546001600160a01b03168152602090f35b90601f8019910116810190811067ffffffffffffffff82111761046857604052565b634e487b7160e01b600052604160045260246000fd5b90816020910312610496575180151581036104965790565b600080fd5b156104a257565b60405162461bcd60e51b815260206004820152600f60248201526e151c985b9cd9995c8819985a5b1959608a1b6044820152606490fd5b156104e057565b60405162461bcd60e51b815260206004820152600a60248201526927b7363c9037bbb732b960b11b6044820152606490fdfea2646970667358221220c95b999b726351025c9228a4b5dda4f87b98317369887445f45a251cb972dd5d64736f6c63430008130033",
  "linkReferences": {},
  "deployedLinkReferences": {}
}