{
  "_format": "hh-sol-artifact-1",
  "contractName": "PredictionMarketAION",
  "sourceName": "contracts/PredictionMarketAION.sol",
  "abi": [
    {
      "inputs": [
        {
          "internalType": "address",
          "name": "_aionToken",
          "type": "address"
        }
      ],
      "stateMutability": "nonpayable",
      "type": "constructor"
    },
    {
      "anonymous": false,
      "inputs": [
        {
          "indexed": true,
          "internalType": "uint256",
          "name": "marketId",
          "type": "uint256"
        },
        {
          "indexed": true,
          "internalType": "address",
          "name": "user",
          "type": "address"
        },
        {
          "indexed": false,
          "internalType": "uint256",
          "name": "outcome",
          "type": "uint256"
        },
        {
          "indexed": false,
          "internalType": "uint256",
          "name": "amount",
          "type": "uint256"
        }
      ],
      "name": "BetPlaced",
      "type": "event"
    },
    {
      "anonymous": false,
      "inputs": [
        {
          "indexed": true,
          "internalType": "address",
          "name": "user",
          "type": "address"
        },
        {
          "indexed": false,
          "internalType": "uint256",
          "name": "amount",
          "type": "uint256"
        }
      ],
      "name": "ClaimWithdrawn",
      "type": "event"
    },
    {
      "anonymous": false,
      "inputs": [
        {
          "indexed": true,
          "internalType": "uint256",
          "name": "marketId",
          "type": "uint256"
        }
      ],
      "name": "MarketClosed",
      "type": "event"
    },
    {
      "anonymous": false,
      "inputs": [
        {
          "indexed": true,
          "internalType": "uint256",
          "name": "marketId",
          "type": "uint256"
        },
        {
          "indexed": false,
          "internalType": "string",
          "name": "title",
          "type": "string"
        },
        {
          "indexed": false,
          "internalType": "enum PredictionMarketAION.Mode",
          "name": "mode",
          "type": "uint8"
        },
        {
          "indexed": false,
          "internalType": "uint256",
          "name": "closeTime",
          "type": "uint256"
        },
        {
          "indexed": false,
          "internalType": "address",
          "name": "oracle",
          "type": "address"
        }
      ],
      "name": "MarketCreated",
      "type": "event"
    },
    {
      "anonymous": false,
      "inputs": [
        {
          "indexed": true,
          "internalType": "uint256",
          "name": "marketId",
          "type": "uint256"
        },
        {
          "indexed": false,
          "internalType": "uint256",
          "name": "winningOutcome",
          "type": "uint256"
        }
      ],
      "name": "MarketResolved",
      "type": "event"
    },
    {
      "inputs": [],
      "name": "PLATFORM_FEE_BPS",
      "outputs": [
        {
          "internalType": "uint256",
          "name": "",
          "type": "uint256"
        }
      ],
      "stateMutability": "view",
      "type": "function"
    },
    {
      "inputs": [],
      "name": "aionToken",
      "outputs": [
        {
          "internalType": "contract IERC20",
          "name": "",
          "type": "address"
        }
      ],
      "stateMutability": "view",
      "type": "function"
    },
    {
      "inputs": [
        {
          "internalType": "uint256",
          "name": "",
          "type": "uint256"
        },
        {
          "internalType": "uint256",
          "name": "",
          "type": "uint256"
        }
      ],
      "name": "bets",
      "outputs": [
        {
          "internalType": "address",
          "name": "bettor",
          "type": "address"
        },
        {
          "internalType": "uint256",
          "name": "outcome",
          "type": "uint256"
        },
        {
          "internalType": "uint256",
          "name": "amount",
          "type": "uint256"
        },
        {
          "internalType": "bool",
          "name": "claimed",
          "type": "bool"
        }
      ],
      "stateMutability": "view",
      "type": "function"
    },
    {
      "inputs": [
        {
          "internalType": "address",
          "name": "",
          "type": "address"
        }
      ],
      "name": "claimable",
      "outputs": [
        {
          "internalType": "uint256",
          "name": "",
          "type": "uint256"
        }
      ],
      "stateMutability": "view",
      "type": "function"
    },
    {
      "inputs": [
        {
          "internalType": "uint256",
          "name": "marketId",
          "type": "uint256"
        }
      ],
      "name": "closeMarket",
      "outputs": [],
      "stateMutability": "nonpayable",
      "type": "function"
    },
    {
      "inputs": [
        {
          "internalType": "string",
          "name": "title",
          "type": "string"
        },
        {
          "internalType": "string[]",
          "name": "outcomes",
          "type": "string[]"
        },
        {
          "internalType": "uint256",
          "name": "closeTime",
          "type": "uint256"
        },
        {
          "internalType": "address",
          "name": "oracle",
          "type": "address"
        },
        {
          "internalType": "enum PredictionMarketAION.Mode",
          "name": "mode",
          "type": "uint8"
        }
      ],
      "name": "createMarket",
      "outputs": [
        {
          "internalType": "uint256",
          "name": "",
          "type": "uint256"
        }
      ],
      "stateMutability": "nonpayable",
      "type": "function"
    },
    {
      "inputs": [
        {
          "internalType": "uint256",
          "name": "marketId",
          "type": "uint256"
        }
      ],
      "name": "getMarketBetsCount",
      "outputs": [
        {
          "internalType": "uint256",
          "name": "",
          "type": "uint256"
        }
      ],
      "stateMutability": "view",
      "type": "function"
    },
    {
      "inputs": [
        {
          "internalType": "uint256",
          "name": "marketId",
          "type": "uint256"
        },
        {
          "internalType": "uint256",
          "name": "outcome",
          "type": "uint256"
        }
      ],
      "name": "getOutcomePool",
      "outputs": [
        {
          "internalType": "uint256",
          "name": "",
          "type": "uint256"
        }
      ],
      "stateMutability": "view",
      "type": "function"
    },
    {
      "inputs": [],
      "name": "marketCount",
      "outputs": [
        {
          "internalType": "uint256",
          "name": "",
          "type": "uint256"
        }
      ],
      "stateMutability": "view",
      "type": "function"
    },
    {
      "inputs": [
        {
          "internalType": "uint256",
          "name": "",
          "type": "uint256"
        }
      ],
      "name": "markets",
      "outputs": [
        {
          "internalType": "string",
          "name": "title",
          "type": "string"
        },
        {
          "internalType": "enum PredictionMarketAION.Mode",
          "name": "mode",
          "type": "uint8"
        },
        {
          "internalType": "uint256",
          "name": "closeTime",
          "type": "uint256"
        },
        {
          "internalType": "address",
          "name": "oracle",
          "type": "address"
        },
        {
          "internalType": "enum PredictionMarketAION.Status",
          "name": "status",
          "type": "uint8"
        },
        {
          "internalType": "uint256",
          "name": "totalStaked",
          "type": "uint256"
        },
        {
          "internalType": "uint256",
          "name": "winningOutcome",
          "type": "uint256"
        }
      ],
      "stateMutability": "view",
      "type": "function"
    },
    {
      "inputs": [
        {
          "internalType": "uint256",
          "name": "",
          "type": "uint256"
        },
        {
          "internalType": "uint256",
          "name": "",
          "type": "uint256"
        }
      ],
      "name": "outcomePool",
      "outputs": [
        {
          "internalType": "uint256",
          "name": "",
          "type": "uint256"
        }
      ],
      "stateMutability": "view",
      "type": "function"
    },
    {
      "inputs": [],
      "name": "owner",
      "outputs": [
        {
          "internalType": "address",
          "name": "",
          "type": "address"
        }
      ],
      "stateMutability": "view",
      "type": "function"
    },
    {
      "inputs": [
        {
          "internalType": "uint256",
          "name": "amount",
          "type": "uint256"
        }
      ],
      "name": "ownerWithdraw",
      "outputs": [],
      "stateMutability": "nonpayable",
      "type": "function"
    },
    {
      "inputs": [
        {
          "internalType": "uint256",
          "name": "marketId",
          "type": "uint256"
        },
        {
          "internalType": "uint256",
          "name": "outcome",
          "type": "uint256"
        },
        {
          "internalType": "uint256",
          "name": "amount",
          "type": "uint256"
        }
      ],
      "name": "placeBet",
      "outputs": [],
      "stateMutability": "nonpayable",
      "type": "function"
    },
    {
      "inputs": [
        {
          "internalType": "uint256",
          "name": "marketId",
          "type": "uint256"
        },
        {
          "internalType": "uint256",
          "name": "winningOutcome",
          "type": "uint256"
        }
      ],
      "name": "resolveMarket",
      "outputs": [],
      "stateMutability": "nonpayable",
      "type": "function"
    },
    {
      "inputs": [
        {
          "internalType": "address",
          "name": "_staking",
          "type": "address"
        }
      ],
      "name": "setStakingContract",
      "outputs": [],
      "stateMutability": "nonpayable",
      "type": "function"
    },
    {
      "inputs": [],
      "name": "stakingContract",
      "outputs": [
        {
          "internalType": "address",
          "name": "",
          "type": "address"
        }
      ],
      "stateMutability": "view",
      "type": "function"
    },
    {
      "inputs": [],
      "name": "withdrawClaim",
      "outputs": [],
      "stateMutability": "nonpayable",
      "type": "function"
    }
  ],
  "bytecode": "0x60803461007f57601f6116ca38819003918201601f19168301916001600160401b038311848410176100845780849260209460405283398101031261007f57516001600160a01b0381169081900361007f5760018060a01b0319338160005416176000556000600155600254161760025560405161162f908161009b8239f35b600080fd5b634e487b7160e01b600052604160045260246000fdfe608080604052600436101561001357600080fd5b60003560e01c9081632486436914611066575080632d7b800d14610a7357806333f707d1146109c9578063402914f51461098f578063539aa77f146109735780635d00e41f146100e557806360557333146108ef5780636a09f6be1461088557806373e4e146146108595780638da5cb5b146108305780639dd373b9146107df578063ae418095146106cf578063b1283e7714610563578063e71c969714610285578063e777468b14610164578063ec97908214610146578063ee99205c1461011d5763f61e0a19146100e557600080fd5b34610118576100f3366110a0565b9060005260066020526040600020906000526020526020604060002054604051908152f35b600080fd5b34610118576000366003190112610118576003546040516001600160a01b039091168152602090f35b34610118576000366003190112610118576020600154604051908152f35b34610118576000366003190112610118573360005260206007815260406000205490811561025257336000818152600783526040808220829055600254905163a9059cbb60e01b81526004810193909352602483018590529192918291849160449183916001600160a01b03165af1918215610246577f8e6c87aed9387e061f0184a35f7b2874396936bf48eb70ffe44fb7f5165bce969261020e91600091610219575b5061122f565b6040519283523392a2005b6102399150833d851161023f575b6102318183611122565b810190611217565b85610208565b503d610227565b6040513d6000823e3d90fd5b6064906040519062461bcd60e51b82526004820152600c60248201526b6e6f20636c61696d61626c6560a01b6044820152fd5b346101185760603660031901126101185760043560249081359160443590826000526020906004825260ff60046040600020015460a01c166102c681611144565b61052e5783600052600482526003604060002001544210156104f35782156104c5578360005260048252604060002090610305600283015487106111d9565b6002546040516323b872dd60e01b81523360048201523081840152604481018690526001600160a01b03929185908290606490829060009088165af1801561024657610358916000916104a8575061122f565b8560005260058452604060002091604051906080820182811067ffffffffffffffff82111761049357604052338252858201908982526040830192888452606081019560008752805490600160401b82101561047e57906103be916001820181556110b6565b95909561046a5750916003939160059796959351166bffffffffffffffffffffffff60a01b845416178355516001830155516002820155019051151560ff8019835416911617905584600052600683526040600020866000528352604060002061042985825461126d565b90550161043783825461126d565b90556040519384528301527f1b8a9031cb9351278d70a994f81536e9e08c91162e64f92b2fe4766fb7a891b460403393a3005b634e487b7160e01b60005260006004526000fd5b86634e487b7160e01b60005260416004526000fd5b83634e487b7160e01b60005260416004526000fd5b6104bf9150863d881161023f576102318183611122565b89610208565b9060086064926040519262461bcd60e51b84526004840152820152671e995c9bc818995d60c21b6044820152fd5b9060156064926040519262461bcd60e51b84526004840152820152746d61726b657420636c6f7365642062792074696d6560581b6044820152fd5b90600f6064926040519262461bcd60e51b845260048401528201526e36b0b935b2ba103737ba1037b832b760891b6044820152fd5b34610118576020806003193601126101185760043560005260048152604060002060405191600083835491610597836110e8565b8083526001938585821691826000146106b157505060011461066d575b5060ff92916105c4910386611122565b830154169260038301549260048101549060ff8260a01c1660066005830154920154926040519660e088528551958660e08a015260005b8781106106585750508798610100989760008a898b01015261061c82611144565b88015260408701526001600160a01b0316606086015261063b81611144565b608085015260a084015260c0830152601f01601f19168101030190f35b8181018901518a8201610100015288016105fb565b9291505083600052848380600020936000945b818610610698575092939192509082010160ff6105b4565b8054898701840152919094019387925085918401610680565b60ff19168186015291151560051b8401909101915060ff90506105b4565b34610118576020366003190112610118576004358060005260046020526040600020600481019081549060ff8260a01c1661070981611144565b6107af5760030154421080159061079b575b156107565760ff60a01b1916600160a01b1790557f9dc30b8eda31a6a144e092e5de600955523a6a925cc15cc1d1b9b4872cfa6155600080a2005b60405162461bcd60e51b815260206004820152601d60248201527f6f6e6c7920616674657220636c6f736554696d65206f72206f776e65720000006044820152606490fd5b506000546001600160a01b0316331461071b565b60405162461bcd60e51b81526020600482015260086024820152673737ba1037b832b760c11b6044820152606490fd5b34610118576020366003190112610118576107f861108a565b6000546001600160a01b0391906108129083163314611164565b166bffffffffffffffffffffffff60a01b6003541617600355600080f35b34610118576000366003190112610118576000546040516001600160a01b039091168152602090f35b346101185760203660031901126101185760043560005260056020526020604060002054604051908152f35b3461011857610893366110a0565b90600052600560205260406000208054821015610118576080916108b6916110b6565b5060018060a01b038154169060018101549060ff6003600283015492015416916040519384526020840152604083015215156060820152f35b34610118576108fd366110a0565b81600052600460205260018060a01b0380600460406000200154163314908115610965575b5015610933576109319161127a565b005b60405162461bcd60e51b815260206004820152600a6024820152696e6f74206f7261636c6560b01b6044820152606490fd5b905060005416331483610922565b3461011857600036600319011261011857602060405160c88152f35b34610118576020366003190112610118576001600160a01b036109b061108a565b1660005260076020526020604060002054604051908152f35b346101185760203660031901126101185760008054602090610a3a906001600160a01b03908116906109fc338314611164565b60025460405163a9059cbb60e01b81526001600160a01b03909316600480850191909152356024840152919485939190921691839182906044820190565b03925af180156102465761093191600091610a55575061122f565b610a6d915060203d811161023f576102318183611122565b82610208565b346101185760a03660031901126101185767ffffffffffffffff60043511610118573660236004350112156101185767ffffffffffffffff600435600401351161011857366024600435600401356004350101116101185767ffffffffffffffff60243511610118573660236024350112156101185767ffffffffffffffff60243560040135116101185736602480356004013560051b8135010111610118576064356001600160a01b038082168203610118576003608435101561011857610b4181600054163314611164565b6002602435600401351061103257426044351115610ffb57610b6460015461119d565b90816001558160005260046020526040600020610b8181546110e8565b601f8111610fc4575b506000601f6004356004013511600114610f3e5760009060043560040135610f2e575b506004356004013560011b906000196004356004013560031b1c19161781555b600160401b6024356004013511610f18576002810180546004602435013591829055908111610e9a575b5060248035016002820160005260206000206000915b602435600401358310610cf85760443560038501556004840180546001600160a81b031916868916179055602086807fafed4248d7d96383b158583c4492e2349c4643d5fb2fc7ded0ed57194940f09e8a89600060058b60018101610c73608435611144565b60ff1981541660ff60843516179055015560405191608083526004356004013560808401526004356004013560246004350160a0850137600060a06004356004013585010152610cc4608435611144565b60843587840152604435604084015216606082015260a081601f19601f6004356004013501168101030190a2604051908152f35b602435360360421901813512156101185767ffffffffffffffff60248235813501013511610118576024803582350190810135360360449091011361011857610d4182546110e8565b601f8111610e55575b506000601f60248335813501013511600114610db85760206001928392600090602483358135010135610da5575b50600019602480358435010135600381901b9190911c1990911690841b1785555b01920192019190610c0d565b604491508235602435010101358b610d78565b8260005260206000209060005b602480358535010135601f19168110610e3557506001928392602092602480358435010135601f19811610610e0b575b505082602482358135010135811b018555610d99565b604460001960f860248635813501013560031b161c19918435602435010101351690558a80610df5565b909160206001819260448688356024350101013581550193019101610dc5565b6000838152602090819020610e8a92602480358635010135601f810160051c83019311610e90575b601f0160051c01906111c2565b87610d4a565b9091508190610e7d565b600282016000526020600020906024356004013582015b8183018110610ec1575050610bf7565b80610ece600192546110e8565b80610edb575b5001610eb1565b601f81118314610ef15750600081555b88610ed4565b600090828252610f0f601f60208420920160051c82018583016111c2565b81835555610eeb565b634e487b7160e01b600052604160045260246000fd5b6024915060043501013585610bad565b8160005260206000209060005b600480350135601f19168110610fa75750600480350135601f19811610610f82575b5050600160043560040135811b018155610bcd565b602460001960f86004356004013560031b161c19916004350101351690558480610f6d565b909160206001819260248660043501013581550193019101610f4b565b6000828152602090819020610ff592600480350135601f810160051c83019311610e9057601f0160051c01906111c2565b84610b8a565b60405162461bcd60e51b815260206004820152600f60248201526e636c6f736554696d65203e206e6f7760881b6044820152606490fd5b60405162461bcd60e51b815260206004820152600c60248201526b3e3d32206f7574636f6d657360a01b6044820152606490fd5b34610118576000366003190112610118576002546001600160a01b03168152602090f35b600435906001600160a01b038216820361011857565b6040906003190112610118576004359060243590565b80548210156110d25760005260206000209060021b0190600090565b634e487b7160e01b600052603260045260246000fd5b90600182811c92168015611118575b602083101461110257565b634e487b7160e01b600052602260045260246000fd5b91607f16916110f7565b90601f8019910116810190811067ffffffffffffffff821117610f1857604052565b6003111561114e57565b634e487b7160e01b600052602160045260246000fd5b1561116b57565b60405162461bcd60e51b815260206004820152600a60248201526937b7363c9037bbb732b960b11b6044820152606490fd5b60001981146111ac5760010190565b634e487b7160e01b600052601160045260246000fd5b8181106111cd575050565b600081556001016111c2565b156111e057565b60405162461bcd60e51b815260206004820152600f60248201526e696e76616c6964206f7574636f6d6560881b6044820152606490fd5b90816020910312610118575180151581036101185790565b1561123657565b60405162461bcd60e51b815260206004820152600f60248201526e1d1c985b9cd9995c8819985a5b1959608a1b6044820152606490fd5b919082018092116111ac57565b9190916000818152600493602091858352604090818120908782019182549160ff8360a01c16936112aa85611144565b600180951480156115eb575b156115b7578882528a885260ff8b878420015460a01c16936112d785611144565b6002809514611581576112ee8585015489106111d9565b600684810189905560ff60a01b19909116600160a11b179091558882528752848120868252875284812054918215908161154f57600501549360c8850285810460c8148615171561153c57612710900480860395861161153c579186918a8e948a60018060a01b03968888600354169182151580611533575b611473575b5093505050508c919293505260058a528784208785905b6113bd575b5050505050505050507f6dfc24f0f2fb42e49fb4fa3ffa8abb148cab908a1fb8335b3f128a08b2594af19394955051908152a2565b815481101561146e5790816113d58a959493836110b6565b508c86820154146113f4575b506113eb9061119d565b90919293611383565b9091928094955081015490898202918083048b1490151715611459578561144457916113eb9161143c8f8e60078f9a999897928d8f948e9054169052528b209204825461126d565b9055906113e1565b508f876012602492634e487b7160e01b835252fd5b508f876011602492634e487b7160e01b835252fd5b611388565b8654935163a9059cbb60e01b81526001600160a01b03939093169083019081526020810194909452959650939484928390036040019183919089165af190811561152957859161150c575b50156114d3579086918a388f81888d9261136c565b875162461bcd60e51b8152808e018b90526013602482015272199959481d1c985b9cd9995c8819985a5b1959606a1b6044820152606490fd5b61152391508b3d8d1161023f576102318183611122565b386114be565b89513d87823e3d90fd5b50841515611367565b634e487b7160e01b845260118d52602484fd5b5050505050507f6dfc24f0f2fb42e49fb4fa3ffa8abb148cab908a1fb8335b3f128a08b2594af19394955051908152a2565b865162461bcd60e51b8152808d018a9052601060248201526f185b1c9958591e481c995cdbdb1d995960821b6044820152606490fd5b855162461bcd60e51b8152808c01899052600e60248201526d1b5d5cdd0818994818db1bdcd95960921b6044820152606490fd5b5060038301544210156112b656fea26469706673582212208e1bb138ea54e0ebb9528a56c8123246e8a3dadf0c095b0e880e07cb45a0795064736f6c63430008130033",
  "linkReferences": {},
  "deployedLinkReferences": {}
}